{
    "contractName": "Transactions",
    "abi": [
        {
            "anonymous": false,
            "inputs": [
                {
                    "indexed": false,
                    "internalType": "address",
                    "name": "from",
                    "type": "address"
                },
                {
                    "indexed": false,
                    "internalType": "address",
                    "name": "to",
                    "type": "address"
                },
                {
                    "indexed": false,
                    "internalType": "uint256",
                    "name": "amount",
                    "type": "uint256"
                },
                {
                    "indexed": false,
                    "internalType": "string",
                    "name": "message",
                    "type": "string"
                },
                {
                    "indexed": false,
                    "internalType": "uint256",
                    "name": "timestamp",
                    "type": "uint256"
                },
                {
                    "indexed": false,
                    "internalType": "string",
                    "name": "keyword",
                    "type": "string"
                }
            ],
            "name": "Transfer",
            "type": "event"
        },
        {
            "inputs": [],
            "name": "getTransactionCount",
            "outputs": [
                {
                    "internalType": "uint256",
                    "name": "",
                    "type": "uint256"
                }
            ],
            "stateMutability": "view",
            "type": "function"
        },
        {
            "inputs": [],
            "name": "getTransactions",
            "outputs": [
                {
                    "components": [
                        {
                            "internalType": "address",
                            "name": "sender",
                            "type": "address"
                        },
                        {
                            "internalType": "address",
                            "name": "receiver",
                            "type": "address"
                        },
                        {
                            "internalType": "uint256",
                            "name": "amount",
                            "type": "uint256"
                        },
                        {
                            "internalType": "string",
                            "name": "message",
                            "type": "string"
                        },
                        {
                            "internalType": "uint256",
                            "name": "timestamp",
                            "type": "uint256"
                        },
                        {
                            "internalType": "string",
                            "name": "keyword",
                            "type": "string"
                        }
                    ],
                    "internalType": "struct Transactions.TransferSructure[]",
                    "name": "",
                    "type": "tuple[]"
                }
            ],
            "stateMutability": "view",
            "type": "function"
        },
        {
            "inputs": [
                {
                    "internalType": "uint256",
                    "name": "",
                    "type": "uint256"
                }
            ],
            "name": "transactions",
            "outputs": [
                {
                    "internalType": "address",
                    "name": "sender",
                    "type": "address"
                },
                {
                    "internalType": "address",
                    "name": "receiver",
                    "type": "address"
                },
                {
                    "internalType": "uint256",
                    "name": "amount",
                    "type": "uint256"
                },
                {
                    "internalType": "string",
                    "name": "message",
                    "type": "string"
                },
                {
                    "internalType": "uint256",
                    "name": "timestamp",
                    "type": "uint256"
                },
                {
                    "internalType": "string",
                    "name": "keyword",
                    "type": "string"
                }
            ],
            "stateMutability": "view",
            "type": "function"
        },
        {
            "inputs": [
                {
                    "internalType": "address",
                    "name": "receiver",
                    "type": "address"
                },
                {
                    "internalType": "uint256",
                    "name": "amount",
                    "type": "uint256"
                },
                {
                    "internalType": "string",
                    "name": "message",
                    "type": "string"
                },
                {
                    "internalType": "string",
                    "name": "keyword",
                    "type": "string"
                }
            ],
            "name": "transfer",
            "outputs": [],
            "stateMutability": "nonpayable",
            "type": "function"
        }
    ],
    "bytecode": "608060405234801561001057600080fd5b50610a3b806100206000396000f3fe608060405234801561001057600080fd5b506004361061004c5760003560e01c80632e7700f01461005157806383920e90146100675780639ace38c21461007c578063e9c02815146100a1575b600080fd5b6000546040519081526020015b60405180910390f35b61006f6100b6565b60405161005e9190610634565b61008f61008a3660046106f5565b610271565b60405161005e9695949392919061070e565b6100b46100af366004610809565b6103d9565b005b60606001805480602002602001604051908101604052809291908181526020016000905b828210156102685760008481526020908190206040805160c0810182526006860290920180546001600160a01b0390811684526001820154169383019390935260028301549082015260038201805491929160608401919061013b90610895565b80601f016020809104026020016040519081016040528092919081815260200182805461016790610895565b80156101b45780601f10610189576101008083540402835291602001916101b4565b820191906000526020600020905b81548152906001019060200180831161019757829003601f168201915b50505050508152602001600482015481526020016005820180546101d790610895565b80601f016020809104026020016040519081016040528092919081815260200182805461020390610895565b80156102505780601f1061022557610100808354040283529160200191610250565b820191906000526020600020905b81548152906001019060200180831161023357829003601f168201915b505050505081525050815260200190600101906100da565b50505050905090565b6001818154811061028157600080fd5b600091825260209091206006909102018054600182015460028301546003840180546001600160a01b0394851696509290931693909290916102c290610895565b80601f01602080910402602001604051908101604052809291908181526020018280546102ee90610895565b801561033b5780601f106103105761010080835404028352916020019161033b565b820191906000526020600020905b81548152906001019060200180831161031e57829003601f168201915b50505050509080600401549080600501805461035690610895565b80601f016020809104026020016040519081016040528092919081815260200182805461038290610895565b80156103cf5780601f106103a4576101008083540402835291602001916103cf565b820191906000526020600020905b8154815290600101906020018083116103b257829003601f168201915b5050505050905086565b33318311156104275760405162461bcd60e51b815260206004820152601660248201527510985b185b98d9481b9bdd081cdd59999a58da595b9d60521b604482015260640160405180910390fd5b6040516001600160a01b0385169084156108fc029085906000818181858888f1935050505015801561045d573d6000803e3d6000fd5b5060008054908061046d836108cf565b91905055507f416cfa4330a4565f45c2fd2dd4826a83a37443aba2ce6f79477c7355afac35fa3385858542866040516104ab9695949392919061070e565b60405180910390a16040805160c0810182523381526001600160a01b03868116602083019081529282018681526060830186815242608085015260a08401869052600180548082018255600091909152845160069091027fb10e2d527612073b26eecdfd717e6a320cf44b4afac2b0732d9fcbe2b7fa0cf6810180549286166001600160a01b031993841617815596517fb10e2d527612073b26eecdfd717e6a320cf44b4afac2b0732d9fcbe2b7fa0cf7820180549190961692169190911790935590517fb10e2d527612073b26eecdfd717e6a320cf44b4afac2b0732d9fcbe2b7fa0cf8830155519192917fb10e2d527612073b26eecdfd717e6a320cf44b4afac2b0732d9fcbe2b7fa0cf9909101906105c69082610945565b506080820151600482015560a082015160058201906105e59082610945565b50505050505050565b6000815180845260005b81811015610614576020818501810151868301820152016105f8565b506000602082860101526020601f19601f83011685010191505092915050565b60006020808301818452808551808352604092508286019150828160051b87010184880160005b838110156106e757888303603f19018552815180516001600160a01b039081168552888201511688850152868101518785015260608082015160c082870181905291906106aa838801826105ee565b92505050608080830151818701525060a080830151925085820381870152506106d381836105ee565b96890196945050509086019060010161065b565b509098975050505050505050565b60006020828403121561070757600080fd5b5035919050565b6001600160a01b038781168252861660208201526040810185905260c060608201819052600090610741908301866105ee565b84608084015282810360a084015261075981856105ee565b9998505050505050505050565b634e487b7160e01b600052604160045260246000fd5b600082601f83011261078d57600080fd5b813567ffffffffffffffff808211156107a8576107a8610766565b604051601f8301601f19908116603f011681019082821181831017156107d0576107d0610766565b816040528381528660208588010111156107e957600080fd5b836020870160208301376000602085830101528094505050505092915050565b6000806000806080858703121561081f57600080fd5b84356001600160a01b038116811461083657600080fd5b935060208501359250604085013567ffffffffffffffff8082111561085a57600080fd5b6108668883890161077c565b9350606087013591508082111561087c57600080fd5b506108898782880161077c565b91505092959194509250565b600181811c908216806108a957607f821691505b6020821081036108c957634e487b7160e01b600052602260045260246000fd5b50919050565b6000600182016108ef57634e487b7160e01b600052601160045260246000fd5b5060010190565b601f82111561094057600081815260208120601f850160051c8101602086101561091d5750805b601f850160051c820191505b8181101561093c57828155600101610929565b5050505b505050565b815167ffffffffffffffff81111561095f5761095f610766565b6109738161096d8454610895565b846108f6565b602080601f8311600181146109a857600084156109905750858301515b600019600386901b1c1916600185901b17855561093c565b600085815260208120601f198616915b828110156109d7578886015182559484019460019091019084016109b8565b50858210156109f55787850151600019600388901b60f8161c191681555b5050505050600190811b0190555056fea26469706673582212204a929012a9d60e04745331cca7dd6e5b18c90f9496c31bd80123581bf14ec22064736f6c63430008110033",
    "sourcePath": "/home/kandy/Desktop/ngeni_workspace/first_dapp/smart_contract/contracts/Transactions.sol",
    "compiler": {
        "name": "solc",
        "version": "0.8.17+commit.8df45f5f"
    },
    "functionHashes": {
        "getTransactionCount()": "2e7700f0",
        "getTransactions()": "83920e90",
        "transactions(uint256)": "9ace38c2",
        "transfer(address,uint256,string,string)": "e9c02815"
    },
    "gasEstimates": {
        "creation": {
            "codeDepositCost": "523800",
            "executionCost": "556",
            "totalCost": "524356"
        },
        "external": {
            "getTransactionCount()": "2247",
            "getTransactions()": "infinite",
            "transactions(uint256)": "infinite",
            "transfer(address,uint256,string,string)": "infinite"
        }
    }
}