{
    "_format": "hh-sol-artifact-1",
    "contractName": "Transactions",
    "sourceName": "contracts/Transactions.sol",
    "abi": [
        {
            "anonymous": false,
            "inputs": [
                {
                    "indexed": false,
                    "internalType": "address",
                    "name": "from",
                    "type": "address"
                },
                {
                    "indexed": false,
                    "internalType": "address",
                    "name": "to",
                    "type": "address"
                },
                {
                    "indexed": false,
                    "internalType": "uint256",
                    "name": "amount",
                    "type": "uint256"
                },
                {
                    "indexed": false,
                    "internalType": "string",
                    "name": "message",
                    "type": "string"
                },
                {
                    "indexed": false,
                    "internalType": "uint256",
                    "name": "timestamp",
                    "type": "uint256"
                },
                {
                    "indexed": false,
                    "internalType": "string",
                    "name": "keyword",
                    "type": "string"
                }
            ],
            "name": "Transfer",
            "type": "event"
        },
        {
            "inputs": [],
            "name": "getTransactionCount",
            "outputs": [
                {
                    "internalType": "uint256",
                    "name": "",
                    "type": "uint256"
                }
            ],
            "stateMutability": "view",
            "type": "function"
        },
        {
            "inputs": [],
            "name": "getTransactions",
            "outputs": [
                {
                    "components": [
                        {
                            "internalType": "address",
                            "name": "sender",
                            "type": "address"
                        },
                        {
                            "internalType": "address",
                            "name": "receiver",
                            "type": "address"
                        },
                        {
                            "internalType": "uint256",
                            "name": "amount",
                            "type": "uint256"
                        },
                        {
                            "internalType": "string",
                            "name": "message",
                            "type": "string"
                        },
                        {
                            "internalType": "uint256",
                            "name": "timestamp",
                            "type": "uint256"
                        },
                        {
                            "internalType": "string",
                            "name": "keyword",
                            "type": "string"
                        }
                    ],
                    "internalType": "struct Transactions.TransferSructure[]",
                    "name": "",
                    "type": "tuple[]"
                }
            ],
            "stateMutability": "view",
            "type": "function"
        },
        {
            "inputs": [
                {
                    "internalType": "uint256",
                    "name": "",
                    "type": "uint256"
                }
            ],
            "name": "transactions",
            "outputs": [
                {
                    "internalType": "address",
                    "name": "sender",
                    "type": "address"
                },
                {
                    "internalType": "address",
                    "name": "receiver",
                    "type": "address"
                },
                {
                    "internalType": "uint256",
                    "name": "amount",
                    "type": "uint256"
                },
                {
                    "internalType": "string",
                    "name": "message",
                    "type": "string"
                },
                {
                    "internalType": "uint256",
                    "name": "timestamp",
                    "type": "uint256"
                },
                {
                    "internalType": "string",
                    "name": "keyword",
                    "type": "string"
                }
            ],
            "stateMutability": "view",
            "type": "function"
        },
        {
            "inputs": [
                {
                    "internalType": "address",
                    "name": "receiver",
                    "type": "address"
                },
                {
                    "internalType": "uint256",
                    "name": "amount",
                    "type": "uint256"
                },
                {
                    "internalType": "string",
                    "name": "message",
                    "type": "string"
                },
                {
                    "internalType": "string",
                    "name": "keyword",
                    "type": "string"
                }
            ],
            "name": "transfer",
            "outputs": [],
            "stateMutability": "nonpayable",
            "type": "function"
        }
    ],
    "bytecode": "0x608060405234801561001057600080fd5b50610ead806100206000396000f3fe608060405234801561001057600080fd5b506004361061004c5760003560e01c80632e7700f01461005157806383920e901461006f5780639ace38c21461008d578063e9c02815146100c2575b600080fd5b6100596100de565b6040516100669190610bd0565b60405180910390f35b6100776100e7565b6040516100849190610b8e565b60405180910390f35b6100a760048036038101906100a291906108ef565b61032a565b6040516100b996959493929190610b1f565b60405180910390f35b6100dc60048036038101906100d7919061085c565b6104c6565b005b60008054905090565b60606001805480602002602001604051908101604052809291908181526020016000905b8282101561032157838290600052602060002090600602016040518060c00160405290816000820160009054906101000a900473ffffffffffffffffffffffffffffffffffffffff1673ffffffffffffffffffffffffffffffffffffffff1673ffffffffffffffffffffffffffffffffffffffff1681526020016001820160009054906101000a900473ffffffffffffffffffffffffffffffffffffffff1673ffffffffffffffffffffffffffffffffffffffff1673ffffffffffffffffffffffffffffffffffffffff168152602001600282015481526020016003820180546101f490610d30565b80601f016020809104026020016040519081016040528092919081815260200182805461022090610d30565b801561026d5780601f106102425761010080835404028352916020019161026d565b820191906000526020600020905b81548152906001019060200180831161025057829003601f168201915b505050505081526020016004820154815260200160058201805461029090610d30565b80601f01602080910402602001604051908101604052809291908181526020018280546102bc90610d30565b80156103095780601f106102de57610100808354040283529160200191610309565b820191906000526020600020905b8154815290600101906020018083116102ec57829003601f168201915b5050505050815250508152602001906001019061010b565b50505050905090565b6001818154811061033a57600080fd5b90600052602060002090600602016000915090508060000160009054906101000a900473ffffffffffffffffffffffffffffffffffffffff16908060010160009054906101000a900473ffffffffffffffffffffffffffffffffffffffff16908060020154908060030180546103af90610d30565b80601f01602080910402602001604051908101604052809291908181526020018280546103db90610d30565b80156104285780601f106103fd57610100808354040283529160200191610428565b820191906000526020600020905b81548152906001019060200180831161040b57829003601f168201915b50505050509080600401549080600501805461044390610d30565b80601f016020809104026020016040519081016040528092919081815260200182805461046f90610d30565b80156104bc5780601f10610491576101008083540402835291602001916104bc565b820191906000526020600020905b81548152906001019060200180831161049f57829003601f168201915b5050505050905086565b823373ffffffffffffffffffffffffffffffffffffffff16311015610520576040517f08c379a000000000000000000000000000000000000000000000000000000000815260040161051790610bb0565b60405180910390fd5b8373ffffffffffffffffffffffffffffffffffffffff166108fc849081150290604051600060405180830381858888f19350505050158015610566573d6000803e3d6000fd5b5060008081548092919061057990610d62565b91905055507f416cfa4330a4565f45c2fd2dd4826a83a37443aba2ce6f79477c7355afac35fa3385858542866040516105b796959493929190610b1f565b60405180910390a160016040518060c001604052803373ffffffffffffffffffffffffffffffffffffffff1681526020018673ffffffffffffffffffffffffffffffffffffffff16815260200185815260200184815260200142815260200183815250908060018154018082558091505060019003906000526020600020906006020160009091909190915060008201518160000160006101000a81548173ffffffffffffffffffffffffffffffffffffffff021916908373ffffffffffffffffffffffffffffffffffffffff16021790555060208201518160010160006101000a81548173ffffffffffffffffffffffffffffffffffffffff021916908373ffffffffffffffffffffffffffffffffffffffff1602179055506040820151816002015560608201518160030190805190602001906106f7929190610727565b506080820151816004015560a082015181600501908051906020019061071e929190610727565b50505050505050565b82805461073390610d30565b90600052602060002090601f016020900481019282610755576000855561079c565b82601f1061076e57805160ff191683800117855561079c565b8280016001018555821561079c579182015b8281111561079b578251825591602001919060010190610780565b5b5090506107a991906107ad565b5090565b5b808211156107c65760008160009055506001016107ae565b5090565b60006107dd6107d884610c1c565b610beb565b9050828152602081018484840111156107f557600080fd5b610800848285610cee565b509392505050565b60008135905061081781610e49565b92915050565b600082601f83011261082e57600080fd5b813561083e8482602086016107ca565b91505092915050565b60008135905061085681610e60565b92915050565b6000806000806080858703121561087257600080fd5b600061088087828801610808565b945050602061089187828801610847565b935050604085013567ffffffffffffffff8111156108ae57600080fd5b6108ba8782880161081d565b925050606085013567ffffffffffffffff8111156108d757600080fd5b6108e38782880161081d565b91505092959194509250565b60006020828403121561090157600080fd5b600061090f84828501610847565b91505092915050565b60006109248383610a71565b905092915050565b61093581610cb2565b82525050565b61094481610cb2565b82525050565b600061095582610c5c565b61095f8185610c7f565b93508360208202850161097185610c4c565b8060005b858110156109ad578484038952815161098e8582610918565b945061099983610c72565b925060208a01995050600181019050610975565b50829750879550505050505092915050565b60006109ca82610c67565b6109d48185610c90565b93506109e4818560208601610cfd565b6109ed81610e38565b840191505092915050565b6000610a0382610c67565b610a0d8185610ca1565b9350610a1d818560208601610cfd565b610a2681610e38565b840191505092915050565b6000610a3e601683610ca1565b91507f42616c616e6365206e6f742073756666696369656e74000000000000000000006000830152602082019050919050565b600060c083016000830151610a89600086018261092c565b506020830151610a9c602086018261092c565b506040830151610aaf6040860182610b01565b5060608301518482036060860152610ac782826109bf565b9150506080830151610adc6080860182610b01565b5060a083015184820360a0860152610af482826109bf565b9150508091505092915050565b610b0a81610ce4565b82525050565b610b1981610ce4565b82525050565b600060c082019050610b34600083018961093b565b610b41602083018861093b565b610b4e6040830187610b10565b8181036060830152610b6081866109f8565b9050610b6f6080830185610b10565b81810360a0830152610b8181846109f8565b9050979650505050505050565b60006020820190508181036000830152610ba8818461094a565b905092915050565b60006020820190508181036000830152610bc981610a31565b9050919050565b6000602082019050610be56000830184610b10565b92915050565b6000604051905081810181811067ffffffffffffffff82111715610c1257610c11610e09565b5b8060405250919050565b600067ffffffffffffffff821115610c3757610c36610e09565b5b601f19601f8301169050602081019050919050565b6000819050602082019050919050565b600081519050919050565b600081519050919050565b6000602082019050919050565b600082825260208201905092915050565b600082825260208201905092915050565b600082825260208201905092915050565b6000610cbd82610cc4565b9050919050565b600073ffffffffffffffffffffffffffffffffffffffff82169050919050565b6000819050919050565b82818337600083830152505050565b60005b83811015610d1b578082015181840152602081019050610d00565b83811115610d2a576000848401525b50505050565b60006002820490506001821680610d4857607f821691505b60208210811415610d5c57610d5b610dda565b5b50919050565b6000610d6d82610ce4565b91507fffffffffffffffffffffffffffffffffffffffffffffffffffffffffffffffff821415610da057610d9f610dab565b5b600182019050919050565b7f4e487b7100000000000000000000000000000000000000000000000000000000600052601160045260246000fd5b7f4e487b7100000000000000000000000000000000000000000000000000000000600052602260045260246000fd5b7f4e487b7100000000000000000000000000000000000000000000000000000000600052604160045260246000fd5b6000601f19601f8301169050919050565b610e5281610cb2565b8114610e5d57600080fd5b50565b610e6981610ce4565b8114610e7457600080fd5b5056fea26469706673582212202bb1c41918586aa23fa1935681d048cd8362082d04bf9f8e56e42fc1d56a196e64736f6c63430008000033",
    "linkReferences": {},
    "deployedLinkReferences": {}
}